:100000000C945D000C9485000C9485000C94850084
:100010000C9485000C9485000C9485000C9485004C
:100020000C9485000C9485000C9485000C9485003C
:100030000C9485000C9485000C9485000C9485002C
:100040000C9464050C9425070C94D4050C94AE050F
:100050000C9485000C9485000C9485000C9485000C
:100060000C9406060C9485000000000800020100B4
:100070000003040700000000000000000000000072
:10008000250028002B0000000000240027002A0083
:10009000040404040404040402020202020203032E
:1000A0000303030301020408102040800102040836
:1000B0001020010204081020500711241FBECFEFAA
:1000C000D8E0DEBFCDBF12E0A0E0B1E0E2E8FAE1A7
:1000D00002C005900D92A631B107D9F723E0A6E141
:1000E000B2E001C01D92A33AB207E1F710E0CDE5FE
:1000F000D0E004C02197FE010E94960BCC35D107B9
:10010000C9F70E949C070C943F0D0C94000090E0EE
:10011000FC01EC55FF4F249180579F4FFC018491C7
:10012000882399F090E0880F991FFC01EA57FF4F50
:10013000A591B491FC01E458FF4F859194918FB73C
:10014000F894EC91E22BEC938FBF089590918D027F
:1001500080918C022FEF3FEF981748F4E92FF0E0E1
:10016000E459FD4F208130E09F5F90938D02C901DB
:10017000089590918D0280918C022FEF3FEF981798
:1001800048F4E92FF0E0E459FD4F208130E09F5F13
:1001900090938D02C901089590E0FC01E859FF4F4A
:1001A0002491FC01EC55FF4F3491FC01E057FF4FC7
:1001B000E491EE23C9F0222339F0233001F1A8F4B1
:1001C000213019F1223029F1F0E0EE0FFF1FE45841
:1001D000FF4FA591B4918FB7F894EC91611126C0AF
:1001E00030953E233C938FBF08952730A9F02830E7
:1001F000C9F0243049F7809180008F7D03C0809141
:1002000080008F7780938000DFCF84B58F7784BDA7
:10021000DBCF84B58F7DFBCF8091B0008F7780934B
:10022000B000D2CF8091B0008F7DF9CF3E2BDACFD6
:100230003FB7F8948091680290916902A0916A0298
:10024000B0916B0226B5A89B05C02F3F19F001960F
:10025000A11DB11D3FBFBA2FA92F982F8827BC0120
:10026000CD01620F711D811D911D42E0660F771F48
:10027000881F991F4A95D1F708958F929F92AF9248
:10028000BF92CF92DF92EF92FF924B015C010E94EE
:1002900018016B017C010E9418016C197D098E09FF
:1002A0009F09683E734081059105A8F321E0821AF9
:1002B0009108A108B10888EEC80E83E0D81EE11CA1
:1002C000F11C81149104A104B10429F7FF90EF906F
:1002D000DF90CF90BF90AF909F908F90089508953A
:1002E0000895AF92BF92CF92DF92EF92FF920F9359
:1002F0001F93CF93DF936C017B018B01040F151FBC
:10030000EB015E01AE18BF08C017D10759F0699123
:10031000D601ED91FC910190F081E02DC601099587
:10032000892B79F7C501DF91CF911F910F91FF9034
:10033000EF90DF90CF90BF90AF900895FC01538D68
:10034000448D252F30E0842F90E0821B930B5417AF
:1003500010F0CF96089501970895FC01918D828D3C
:10036000981761F0A28DAE0FBF2FB11D5D968C91D5
:10037000928D9F5F9F73928F90E008958FEF9FEF14
:100380000895FC01918D828D981731F0828DE80FD0
:10039000F11D858D90E008958FEF9FEF0895FC018A
:1003A000918D228D892F90E0805C9F4F821B910957
:1003B0008F73992708958EED92E00E94CF0121E07E
:1003C000892B09F420E0822F089580E090E0892BAA
:1003D00029F00E94DB0181110C9400000895FC01BA
:1003E000A48DA80FB92FB11DA35ABF4F2C91848D96
:1003F00090E001968F739927848FA689B7892C93F3
:10040000A089B1898C91837080648C93938D848D45
:10041000981306C00288F389E02D80818F7D808348
:100420000895EF92FF920F931F93CF93DF93EC0108
:1004300081E0888F9B8D8C8D98131AC0E889F9898B
:10044000808185FF15C09FB7F894EE89FF8960838E
:10045000E889F98980818370806480839FBF81E00F
:1004600090E0DF91CF911F910F91FF90EF90089551
:10047000F62E0B8D10E00F5F1F4F0F731127E02E2C
:100480008C8D8E110CC00FB607FCFACFE889F98964
:10049000808185FFF5CFCE010E94EF01F1CFEB8D7A
:1004A000EC0FFD2FF11DE35AFF4FF0829FB7F89438
:1004B0000B8FEA89FB8980818062CFCFCF93DF9356
:1004C000EC01888D8823B9F0AA89BB89E889F9896C
:1004D0008C9185FD03C0808186FD0DC00FB607FCA1
:1004E000F7CF8C9185FFF2CF808185FFEDCFCE01D4
:1004F0000E94EF01E9CFDF91CF91089508952091F7
:100500003702260F3327331F21323105ECF42091B7
:10051000B402FC0190E080E0243069F082E00895AC
:10052000A09137022191AC01495E5D4FA40FB52F18
:10053000B11D2C930196861798F380913702680FAE
:100540006093370280E0089581E008951092B4022C
:1005500081E08093B30210928E0261E082E10E94FA
:10056000CC0061E083E10E94CC00E9EBF0E0808107
:100570008E7F808380818D7F808388E48093B80024
:1005800085E48093BC000895CF93DF9391E090932E
:1005900016028823B9F0C091B800D091BA008091BA
:1005A000BC008A7B8093BC0060E082E10E94CC00AA
:1005B00060E083E10E94CC000E94A602D093BA00C2
:1005C000C093B800DF91CF9108958F929F92AF9220
:1005D000BF92CF92DF92EF92FF920F931F93CF9330
:1005E000DF93D091DD02D13208F0D7C0182FC0912F
:1005F000DC020E9418016B017C018091B402811120
:100600006BC082E08093B4021093B3028FEF8093AB
:10061000B2021092B102D093B002ACEBB2E0E0E9CA
:10062000F2E080E0D81391C010928F0280918F0287
:10063000CC0FC82BC0938F0280918E02813009F0BD
:1006400088C010928E020E9418016B017C0180917B
:100650008F028093BB008091B6029091B702A09167
:10066000B802B091B902892B8A2B8B2BA1F00E9482
:1006700018010091B6021091B7022091B802309192
:10068000B9026C197D098E099F09061717072807FB
:10069000390708F442C08091BC0083FDD8CF85ECB7
:1006A0008093BC000E9418016B017C018091B40210
:1006B000823009F450C08091B2028F3F09F46FC0BC
:1006C0008091B202803209F46CC08091B202803312
:1006D00009F469C084E026C08091B6029091B70207
:1006E000A091B802B091B902892B8A2B8B2B09F407
:1006F00084CF0E9418018090B6029090B702A0901B
:10070000B802B090B9026C197D098E099F0986164E
:100710009706A806B90608F070CF8091B5020E942E
:10072000C40285E01092BB021092DD021092BA0260
:10073000DF91CF911F910F91FF90EF90DF90CF90BD
:10074000BF90AF909F908F9008959D9191938F5FF0
:1007500069CF85EEA5CF8091B6029091B702A091A6
:10076000B802B091B902892B8A2B8B2B09F49ECF4A
:100770000E9418010091B6021091B7022091B802B0
:100780003091B9026C197D098E099F090617170768
:100790002807390708F08ACFC0CF81E0C3CF80E0B7
:1007A000C1CF82E0BFCF83E0BDCF0895E0918D023D
:1007B00080918C02E81730F4F0E0E459FD4F80811D
:1007C00090E008958FEF9FEF089580918C029091B3
:1007D0008D02891B990B0895CF92DF92EF92FF92C1
:1007E0000F931F93CF93DF937C01CB018A0120915C
:1007F000BA02222389F0EB016B01C40ED51ECC1581
:10080000DD0569F06991D701ED91FC910190F081CE
:10081000E02DC7010995F3CF642F0E947F02C80124
:10082000DF91CF911F910F91FF90EF90DF90CF90CC
:100830000895CF93DF931F92CDB7DEB769832091E0
:10084000BA022223F9F02091DD02203258F021E093
:1008500030E0FC013383228390E080E00F90DF9151
:10086000CF9108958091BB02E82FF0E0E454FD4F52
:10087000998190838F5F8093BB028093DD0281E03A
:1008800090E0ECCF61E0CE0101960E947F02F7CFAD
:10089000682F8BE793E00C941904FC01248131E06C
:1008A0003093BA022093DC021092BB021092DD0258
:1008B0008485862B90E00E94480481E00C94E50238
:1008C00090E080E00895FC0101900020E9F7319765
:1008D000AF01481B590BBC018EED92E00C947101E5
:1008E0008F929F92AF92BF920F931F93CF93DF93FC
:1008F000CDB7DEB7A1970FB6F894DEBF0FBECDBF60
:1009000019A2423008F44AE08E010F5D1F4F842E79
:10091000912CB12CA12CA50194010E94740BE62FFF
:10092000B901CA01EA30F4F4E05DD801EE938D011B
:10093000232B242B252B79F790E080E0109719F0DA
:10094000CD010E946304A1960FB6F894DEBF0FBEDE
:10095000CDBFDF91CF911F910F91BF90AF909F902E
:100960008F900895E95CE1CFCF93DF930E946304F9
:10097000EC0181E391E00E9463048C0F9D1FDF91E5
:10098000CF9108950C946304CF92DF92EF92FF927F
:10099000CF93DF936C01990FEE08FF08F7FE1FC09D
:1009A0006DE28EED92E00E941102EC01662777273E
:1009B000CB016C197D098E099F094AE00E947004E1
:1009C000C80FD91F81E391E00E9463048C0F9D1F23
:1009D000DF91CF91FF90EF90DF90CF9008954AE0A4
:1009E000C701B6010E947004EC01ECCF0F931F9376
:1009F000CF938C01C62F0E944D046C2F6460C801F8
:100A00000E944D046C2F6B7FC8010E944D0483EC43
:100A100090E00197F1F7CF911F910F9108950F93F7
:100A20001F93CF93DF938C01D62FC42F607F642B4D
:100A30000E94F60480E1D89FB00111246C2BC801FC
:100A4000DF91CF911F910F910C94F60441E00E9429
:100A50000F0581E090E0089585ED8093BC008091C2
:100A6000B6029091B702A091B802B091B902079670
:100A7000A11DB11D23E0B695A795979587952A9559
:100A8000D1F72091BC0024FD03C01092B402089558
:100A90004091B6025091B7026091B8027091B902CC
:100AA000452B462B472B69F30097A105B10541F073
:100AB00025E32A95F1F700000197A109B109E1CFDB
:100AC0008091B5020C94C4021F920F920FB60F9240
:100AD00011242F933F938F939F93AF93BF93809154
:100AE000640290916502A0916602B0916702309114
:100AF000630223E0230F2D3758F50196A11DB11D88
:100B0000209363028093640290936502A09366022F
:100B1000B09367028091680290916902A0916A0285
:100B2000B0916B020196A11DB11D80936802909354
:100B30006902A0936A02B0936B02BF91AF919F913B
:100B40008F913F912F910F900FBE0F901F9018958E
:100B500026E8230F0296A11DB11DD2CF1F920F923E
:100B60000FB60F9211242F933F934F935F936F9380
:100B70007F938F939F93AF93BF93EF93FF938EEDEC
:100B800092E00E94EF01FF91EF91BF91AF919F9191
:100B90008F917F916F915F914F913F912F910F9026
:100BA0000FBE0F901F9018951F920F920FB60F92C5
:100BB00011242F938F939F93EF93FF93E091EE0275
:100BC000F091EF028081E091F402F091F50282FD54
:100BD0001BC090818091F7028F5F8F732091F80284
:100BE000821741F0E091F702F0E0E252FD4F958F5D
:100BF0008093F702FF91EF919F918F912F910F902A
:100C00000FBE0F901F9018958081F4CF1F920F9206
:100C10000FB60F9211242F933F934F935F936F93CF
:100C20007F938F939F93AF93BF93EF93FF938091A5
:100C3000B900887F803609F44AC0F0F5883209F49B
:100C4000A7C018F5803109F49BC0B8F4882309F4D3
:100C5000F9C0883009F494C0FF91EF91BF91AF9132
:100C60009F918F917F916F915F914F913F912F91C4
:100C70000F900FBE0F901F901895883109F488C00F
:100C8000803251F78093B20214C0803409F49DC0C1
:100C900040F48033B9F38833F9F68093B20285ECDF
:100CA000B0C0803509F485C0883509F496C0883411
:100CB00099F60E942C05D0CF883909F48CC038F5FC
:100CC000883729F050F4883611F0803729F683E010
:100CD0008093B4021092590257C0883809F47BC03F
:100CE000803919F0803809F0B7CF809159028032ED
:100CF00008F071C0E091590281E08E0F8093590293
:100D00008091BB00F0E0E75CFD4F80833DC0803BFD
:100D100039F0E0F4803A09F479C0883A09F09CCFC0
:100D200084E08093B4021092380210923702E0916E
:100D30005B02F0915C0209958091370281110FC02E
:100D400081E0809337021092170209C0803C09F4B9
:100D5000A6CF883C09F4A3CF883B09F07DCFE09172
:100D6000380281E08E0F80933802F0E0E95EFD4F9B
:100D700080818093BB00909138028091370229C016
:100D800080918F028093BB0085EC8093BC0064CF80
:100D90009091B1028091B002981758F5E091B1029C
:100DA00081E08E0F8093B102F0E0E057FD4F80812B
:100DB000E9CFE091B10281E08E0F8093B102809182
:100DC000BB00F0E0E057FD4F80839091B10280912D
:100DD000B0029817C8F285E8D8CFE091B10281E05F
:100DE0008E0F8093B1028091BB00F0E0E057FD4F81
:100DF00080838091B30281115CCF81E080938E0269
:100E000084EA8093BC001092B40226CF85EC8093D4
:100E1000BC001092B40280915902803230F4E0910B
:100E20005902F0E0E75CFD4F10826091590270E0DA
:100E3000E0915D02F0915E0289E392E009951092E3
:100E400059020ACF1092B20234CF1F920F920FB6FE
:100E50000F9211248F939F93EF93FF9380916002E1
:100E60009091610201969093610280936002E4E99F
:100E7000F3E01EBC00000DB407FEFDCF8EB58193DC
:100E800083E0E33AF807A9F781E080936202FF91DB
:100E9000EF919F918F910F900FBE0F901F9018951B
:100EA000EEEDF2E01382128288EE93E0A0E0B0E073
:100EB00084839583A683B78325E031E03183208343
:100EC00025EC30E03587248724EC30E0378726870F
:100ED00020EC30E0318B208B21EC30E0338B228B07
:100EE00022EC30E0358B248B26EC30E0378B268BE0
:100EF000118E128E138E148EEBE7F3E013821282A2
:100F000084839583A683B78387E191E0918380836F
:100F100084E580939403E7E8F3E01382128289E288
:100F200091E091838083118680E2848380E18287CF
:100F300082E0838714860895CF93DF9300D000D09A
:100F400000D01F92CDB7DEB7789484B5826084BD9F
:100F500084B5816084BD85B5826085BD85B58160BD
:100F600085BD80916E00816080936E00109281003B
:100F700080918100826080938100809181008160F6
:100F800080938100809180008160809380008091B7
:100F9000B10084608093B1008091B0008160809343
:100FA000B00080917A00846080937A0080917A000A
:100FB000826080937A0080917A00816080937A00C9
:100FC00080917A00806880937A001092C100E0914D
:100FD000EE02F091EF0282E08083E091EA02F0916C
:100FE000EB021082E091EC02F091ED028FEC808335
:100FF0001092F602E091F202F091F30286E0808313
:10100000E091F002F091F102808180618083E091B3
:10101000F002F091F102808188608083E091F0021B
:10102000F091F102808180688083E091F002F0917C
:10103000F10280818F7D808384E391E00E94B4047B
:1010400010928D0210928C021092BB021092DD025F
:101050000E94A6028FE691E090935C0280935B026F
:1010600080E791E090935E0280935D0281E080933F
:10107000BA0288E68093DC028BE690E00E94480486
:1010800090E080E00E94480481E00E94E50285E44F
:1010900091E00E94B4042FB72D83F89480915A02F6
:1010A000811124C0EAE9F0E08491EEEAF0E0949145
:1010B000E82FF0E0EE0FFF1FEA57FF4FA591B49124
:1010C000EC91E92321F461E08AE00E94CC008AE0FF
:1010D0000E9487008CB580618CBD8CB580648CBD0E
:1010E0008DE00E9487008BE00E94870080915A0269
:1010F0008F5F80935A023D813FBF8CB58C7F8160AA
:101100008CBD8DB581608DBD61E08AE00E94CC0010
:101110001092620210928D0210928C021092BB0209
:101120001092DD020E94A6028FE691E090935C028D
:1011300080935B0280E791E090935E0280935D0272
:1011400010928C0380919203823018F098E0909373
:101150008C0380938F0362E370E080E090E00E9454
:101160003D016091930387E893E00E944D0468EE8F
:1011700073E080E090E00E943D0160E387E893E047
:101180000E94F6048BE496E40197F1F760E387E8A8
:1011900093E00E94F6048BE496E40197F1F760E394
:1011A00087E893E00E94F60483E592E00197F1F767
:1011B00060E287E893E00E94F60460918C0360622D
:1011C00040E087E893E00E940F0584E080938D0360
:1011D00040E06CE087E893E00E940F0540E061E0AA
:1011E00087E893E00E940F058BE39FE10197F1F7F9
:1011F00080919003882331F040E060E887E893E035
:101200000E940F0582E080938E0340E066E087E84D
:1012100093E00E940F0540E062E087E893E00E94BF
:101220000F058BE39FE10197F1F788E0809393032B
:1012300060E087E893E00E944D04809100018823DC
:1012400009F44EC083E591E00E94B404C12CD12C76
:101250007601C39410E000E0CD8291E09093BA0251
:10126000C092DC021092BB021092DD0281E00E946B
:10127000E5028111B4C08FE591E00E94C2042D8186
:10128000203120F48EE791E00E94C20440E1C701C2
:10129000B6010E94700480E891E00E94B4040F5FE0
:1012A0001F4F8FEFC81AD80AE80AF80A9FE7C91635
:1012B000D104E104F10481F68FE991E0012B21F0E2
:1012C0001092000185EB91E00E94B404809100012E
:1012D000882331F068E873E180E090E00E943D01EE
:1012E00021E02093BA0238E63093DC021092BB0270
:1012F0001092DD028BE390E00E94480480E00E949F
:10130000E5020E9418016B017C018091B4028111F9
:101310007EC081E08093B4028093B3029FEF9093EC
:10132000B2021092B1022DE02093B00280938F029E
:1013300080918F02806D80938F0280918E02813028
:1013400009F0AAC110928E020E9418016B017C0163
:1013500080918F028093BB008091B6029091B7027A
:10136000A091B802B091B902892B8A2B8B2BA1F0E6
:101370000E9418010091B6021091B7022091B802A4
:101380003091B9026C197D098E099F09061717075C
:101390002807390708F45CC08091BC0083FDD8CFD2
:1013A00035EC3093BC000E9418016B017C018091E8
:1013B000B402813009F474C18091B1028E3008F01A
:1013C00091C18091B102A0E9B2E0ECE6F2E090E0D8
:1013D000981709F442C02D9121939F5FF9CF843073
:1013E00009F05FCF83E891E00E94C2043D81303173
:1013F00020F48EE791E00E94C20440E1C701B601EB
:101400000E94700481E391E00E9463044ACF8091BE
:10141000B6029091B702A091B802B091B902892B9F
:101420008A2B8B2B09F471CF0E9418010091B60210
:101430001091B7022091B8023091B9026C197D0960
:101440008E099F09061717072807390708F05DCF8F
:101450008091B5020E94C40280E010928D028093B8
:101460008C020E94B900182F0E94B900212C8229F9
:10147000912B90939603809395030E94B900182FA7
:101480000E94B900812C8829912B90939803809316
:1014900097030E94B900182F0E94B900612C862979
:1014A000912B90939A03809399030E94B900182F6F
:1014B0000E94B900A12C8A29912B90939C038093C0
:1014C0009B030E94B900182F0E94B9001A83198249
:1014D00029813A81822B932B90939E0380939D03C5
:1014E0000E94B900182F0E94B9001C831B822B8117
:1014F0003C81822B932B9093A00380939F030E94A7
:10150000B900182F0E94B900412C8429912B909387
:10151000A2038093A10360919B0370919C03072E0B
:10152000000C880B990B0E94B30C20E030E04AEAD3
:1015300053E40E94090C28EB3EE142E152E40E9490
:101540009D0B0E947B0C70939C0360939B0331E086
:1015500030935F02809162028823C9F01092620288
:101560008BEB91E00E94B404609160027091610283
:1015700090E080E04AE00E94700481E391E00E94E4
:10158000630468EE73E080E090E00E943D0180918A
:101590005F02882309F473C060E08AE00E94CC00F7
:1015A0008AEC91E00E94B40488ED91E00E94B404BA
:1015B0008DEE91E00E94C204809195039091960374
:1015C0000E94C40481EF91E00E94C20480919703BD
:1015D000909198030E94C40485EF91E00E94C20498
:1015E0008091990390919A030E94C40489EF91E03D
:1015F0000E94C20480919D0390919E030E94C404A6
:101600008DEF91E00E94C20480919F039091A0030E
:101610000E94C40481E092E00E94C2048091A10370
:101620009091A2030E94C40485E092E00E94C2044B
:1016300080919B0390919C030E94C404E4E9F3E031
:1016400081918EBD00000DB407FEFDCF8EB583E005
:10165000E33AF807A9F788E092E00E94B4048FE02B
:1016600090E00E94C40410925F0261E08AE00E9450
:10167000CC0068EB7BE080E090E00E943D0120E040
:1016800030E0232B09F4D9CD0E94DB01882309F433
:10169000D4CD0E940000D1CD85EE8093BC0083CED6
:1016A0008091B6029091B702A091B802B091B902B0
:1016B000892B8A2B8B2B09F47ACE0E94180100917A
:1016C000B6021091B7022091B8023091B9026C199C
:1016D0007D098E099F09061717072807390708F0A3
:1016E00066CEB6CE8EE06FCEA1E21A2EAA1BBB1B31
:1016F000FD010DC0AA1FBB1FEE1FFF1FA217B307DE
:10170000E407F50720F0A21BB30BE40BF50B661FF3
:10171000771F881F991F1A9469F7609570958095B7
:1017200090959B01AC01BD01CF010895EE0FFF1F05
:101730000590F491E02D09945058BB27AA270E94E8
:10174000B40B0C94050D0E94F70C38F00E94FE0CAF
:1017500020F039F49F3F19F426F40C94F40C0EF4A5
:10176000E095E7FB0C94EE0CE92F0E94160D58F360
:10177000BA17620773078407950720F079F4A6F576
:101780000C94380D0EF4E0950B2EBA2FA02D0B0102
:10179000B90190010C01CA01A0011124FF27591BB6
:1017A00099F0593F50F4503E68F11A16F040A22FBC
:1017B000232F342F4427585FF3CF4695379527952D
:1017C000A795F0405395C9F77EF41F16BA0B620B2C
:1017D000730B840BBAF09150A1F0FF0FBB1F661F73
:1017E000771F881FC2F70EC0BA0F621F731F841FB6
:1017F00048F4879577956795B795F7959E3F08F0DC
:10180000B0CF9395880F08F09927EE0F979587959D
:1018100008950E941D0C0C94050D0E94FE0C58F0BA
:101820000E94F70C40F029F45F3F29F00C94EE0C75
:1018300051110C94390D0C94F40C0E94160D68F3A0
:101840009923B1F3552391F3951B550BBB27AA2779
:1018500062177307840738F09F5F5F4F220F331FB3
:10186000441FAA1FA9F335D00E2E3AF0E0E832D07B
:1018700091505040E695001CCAF72BD0FE2F29D07E
:10188000660F771F881FBB1F261737074807AB0750
:10189000B0E809F0BB0B802DBF01FF2793585F4FC5
:1018A0003AF09E3F510578F00C94EE0C0C94390DF3
:1018B0005F3FE4F3983ED4F3869577956795B795A7
:1018C000F7959F5FC9F7880F911D9695879597F9B2
:1018D0000895E1E0660F771F881FBB1F621773072B
:1018E0008407BA0720F0621B730B840BBA0BEE1F40
:1018F00088F7E09508950E94820C6894B1110C94C9
:10190000390D08950E941E0D88F09F5798F0B92F49
:101910009927B751B0F0E1F0660F771F881F991F24
:101920001AF0BA95C9F714C0B13091F00E94380D81
:10193000B1E008950C94380D672F782F8827B85F91
:1019400039F0B93FCCF3869577956795B395D9F77C
:101950003EF490958095709561957F4F8F4F9F4F86
:101960000895E89409C097FB3EF490958095709592
:1019700061957F4F8F4F9F4F9923A9F0F92F96E9DB
:10198000BB279395F695879577956795B795F11150
:10199000F8CFFAF4BB0F11F460FF1BC06F5F7F4FED
:1019A0008F4F9F4F16C0882311F096E911C07723FF
:1019B00021F09EE8872F762F05C0662371F096E808
:1019C000862F70E060E02AF09A95660F771F881FD7
:1019D000DAF7880F9695879597F9089597F99F6795
:1019E00080E870E060E008959FEF80EC08950024A7
:1019F0000A941616170618060906089500240A9474
:101A000012161306140605060895092E0394000CF9
:101A100011F4882352F0BB0F40F4BF2B11F460FF88
:101A200004C06F5F7F4F8F4F9F4F089557FD9058B1
:101A3000440F551F59F05F3F71F04795880F97FB92
:101A4000991F61F09F3F79F087950895121613064C
:101A50001406551FF2CF4695F1DF08C0161617067B
:101A60001806991FF1CF86957105610508940895B0
:101A7000E894BB2766277727CB0197F90895F89458
:021A8000FFCF96
:101A82000100000000110271019E015E02CF01AD52
:101A920001C101000000001904EC036004D503E554
:101AA20003A600D603000000002605710160047E33
:101AB200020D0A0053657474696E67207570207395
:101AC2006C617665004D49534F206D6F6465206FE0
:101AD2006666005363616E6E696E672E2E2E004934
:101AE20032432064657669636520666F756E642093
:101AF2006174206164647265737320307800300011
:101B0200202100556E6B6E6F776E206572726F7258
:101B12002061742061646472657373203078004EB2
:101B22006F20493243206465766963657320666F6E
:101B3200756E640A00646F6E650A00696E74657280
:101B420072757074696F6E733A00536C61766520BA
:101B520073656E64696E670073747275637420478F
:101B620079726F416363656C446174610041583AF4
:101B72000041593A00415A3A0047583A0047593A07
:101B820000475A3A00543A006E726F206465206230
:061B920079746573000088
:00000001FF
