:100000000C945D000C9485000C9485000C94850084
:100010000C9485000C9485000C9485000C9485004C
:100020000C9485000C9485000C9485000C9485003C
:100030000C9485000C9485000C9485000C9485002C
:100040000C9437050C9485000C94A7050C9481053D
:100050000C9485000C9485000C9485000C9485000C
:100060000C94D9050C9485000000000800020100E2
:100070000003040700000000000000000000000072
:10008000250028002B0000000000240027002A0083
:10009000040404040404040402020202020203032E
:1000A0000303030301020408102040800102040836
:1000B0001020010204081020F80611241FBECFEF03
:1000C000D8E0DEBFCDBF11E0A0E0B1E0ECEDF2E1A1
:1000D00002C005900D92A43EB107D9F723E0A4EE2B
:1000E000B1E001C01D92A636B207E1F710E0CDE500
:1000F000D0E004C02197FE010E946609CC35D107EB
:10010000C9F70E9441070C946C090C940000E0EBC5
:10011000F2E0A089B18982E08C93A485B5851C9218
:10012000A685B7858FEC8C93108EA489B58986E05F
:100130008C93A289B3898C9180618C93A289B389B5
:100140008C9188608C93A289B3898C9180688C9300
:100150000288F389E02D80818F7D8083089590E06F
:10016000FC01EC55FF4F249180579F4FFC01849177
:10017000882399F090E0880F991FFC01EA57FF4F00
:10018000A591B491FC01E458FF4F859194918FB7EC
:10019000F894EC91E22BEC938FBF089590E0FC0172
:1001A000E859FF4F2491FC01EC55FF4F3491FC01BD
:1001B000E057FF4FE491EE23C9F0222339F02330BA
:1001C00001F1A8F4213019F1223029F1F0E0EE0F0D
:1001D000FF1FE458FF4FA591B4918FB7F894EC91AD
:1001E000611126C030953E233C938FBF0895273080
:1001F000A9F02830C9F0243049F7809180008F7D24
:1002000003C0809180008F7780938000DFCF84B51A
:100210008F7784BDDBCF84B58F7DFBCF8091B0001D
:100220008F778093B000D2CF8091B0008F7DF9CFCF
:100230003E2BDACF3FB7F89480915C0290915D023B
:10024000A0915E02B0915F0226B5A89B05C02F3F2A
:1002500019F00196A11DB11D3FBFBA2FA92F982FEC
:100260008827BC01CD01620F711D811D911D42E0E7
:10027000660F771F881F991F4A95D1F708958F92AF
:100280009F92AF92BF92CF92DF92EF92FF924B017B
:100290005C010E941A016B017C010E941A016C1919
:1002A0007D098E099F09683E734081059105A8F379
:1002B00021E0821A9108A108B10888EEC80E83E0F7
:1002C000D81EE11CF11C81149104A104B10429F78A
:1002D000FF90EF90DF90CF90BF90AF909F908F9066
:1002E000089508950895AF92BF92CF92DF92EF9252
:1002F000FF920F931F93CF93DF936C017B018B01D0
:10030000040F151FEB015E01AE18BF08C017D1071F
:1003100059F06991D601ED91FC910190F081E02DA9
:10032000C6010995892B79F7C501DF91CF911F91FE
:100330000F91FF90EF90DF90CF90BF90AF90089516
:10034000FC01538D448D252F30E0842F90E0821BDB
:10035000930B541710F0CF96089501970895FC0160
:10036000918D828D981761F0A28DAE0FBF2FB11DB8
:100370005D968C91928D9F5F9F73928F90E0089510
:100380008FEF9FEF0895FC01918D828D981731F0CA
:10039000828DE80FF11D858D90E008958FEF9FEF1E
:1003A0000895FC01918D228D892F90E0805C9F4FF4
:1003B000821B91098F739927089580EB92E00E9428
:1003C000D10121E0892B09F420E0822F089580E0FB
:1003D00090E0892B29F00E94DD0181110C9400002E
:1003E0000895FC01A48DA80FB92FB11DA35ABF4FCA
:1003F0002C91848D90E001968F739927848FA68924
:10040000B7892C93A089B1898C91837080648C9377
:10041000938D848D981306C00288F389E02D808126
:100420008F7D80830895EF92FF920F931F93CF9358
:10043000DF93EC0181E0888F9B8D8C8D98131AC01F
:10044000E889F989808185FF15C09FB7F894EE8906
:10045000FF896083E889F989808183708064808363
:100460009FBF81E090E0DF91CF911F910F91FF90AE
:10047000EF900895F62E0B8D10E00F5F1F4F0F7356
:100480001127E02E8C8D8E110CC00FB607FCFACF11
:10049000E889F989808185FFF5CFCE010E94F101BD
:1004A000F1CFEB8DEC0FFD2FF11DE35AFF4FF082E2
:1004B0009FB7F8940B8FEA89FB8980818062CFCF48
:1004C000CF93DF93EC01888D8823B9F0AA89BB898B
:1004D000E889F9898C9185FD03C0808186FD0DC076
:1004E0000FB607FCF7CF8C9185FFF2CF808185FF97
:1004F000EDCFCE010E94F101E9CFDF91CF910895B8
:10050000089520912502260F3327331F213231050C
:10051000ECF420918602FC0190E080E0243069F048
:1005200082E00895A09125022191AC014B5F5D4FBF
:10053000A40FB52FB11D2C930196861798F38091C7
:100540002502680F6093250280E0089581E00895F8
:100550001092860281E0809385021092600261E031
:1005600082E10E94CE0061E083E10E94CE00E9EBCF
:10057000F0E080818E7F808380818D7F808388E41E
:100580008093B80085E48093BC000895CF93DF93F7
:1005900091E0909304028823B9F0C091B800D09103
:1005A000BA008091BC008A7B8093BC0060E082E14D
:1005B0000E94CE0060E083E10E94CE000E94A8026B
:1005C000D093BA00C093B800DF91CF910895CF9235
:1005D000DF92EF92FF920F931F93CF93DF93D0910F
:1005E000AF0281E0D13208F09CC0C091AE020E94FF
:1005F0001A016B017C018091860281116CC082E03E
:100600008093860281E0809385028FEF809384023D
:1006100010928302D0938202AEE8B2E0E2E6F2E00A
:1006200080E0D8138DC01092610280916102CC0FDE
:10063000C82BC093610280916002813009F084C0B0
:10064000109260020E941A016B017C01809161028C
:100650008093BB008091880290918902A0918A02C8
:10066000B0918B02892B8A2B8B2BA1F00E941A014F
:10067000009188021091890220918A0230918B02A8
:100680006C197D098E099F09061717072807390776
:1006900008F442C08091BC0083FDD8CF85EC8093E4
:1006A000BC000E941A016B017C018091860282309D
:1006B00009F44CC0809184028F3F09F469C0809195
:1006C0008402803209F466C080918402803309F488
:1006D00063C084E026C08091880290918902A09135
:1006E0008A02B0918B02892B8A2B8B2B09F483CF42
:1006F0000E941A01009188021091890220918A02B9
:1007000030918B026C197D098E099F090617170716
:100710002807390708F06FCF809187020E94C60230
:1007200085E010928D021092AF0210928C02DF9140
:10073000CF911F910F91FF90EF90DF90CF90089590
:100740009D9191938F5F6DCF85EEA9CF80918802A7
:1007500090918902A0918A02B0918B02892B8A2BF9
:100760008B2B09F4A2CF0E941A01009188021091EC
:10077000890220918A0230918B026C197D098E09C1
:100780009F09061717072807390708F08ECFC4CF2F
:1007900080E0C7CF82E0C5CF83E0C3CF0895E0916A
:1007A0004D0280914C02E81730F4F0E0EC51FE4F1E
:1007B000808190E008958FEF9FEF089590914D0212
:1007C00080914C022FEF3FEF981748F4E92FF0E0AB
:1007D000EC51FE4F208130E09F5F90934D02C901A4
:1007E000089580914C0290914D02891B990B0895B8
:1007F000CF92DF92EF92FF920F931F93CF93DF93ED
:100800007C01CB018A0120918C02222389F0EB012B
:100810006B01C40ED51ECC15DD0569F06991D701B9
:10082000ED91FC910190F081E02DC7010995F3CF86
:10083000642F0E948102C801DF91CF911F910F9117
:10084000FF90EF90DF90CF900895CF93DF931F92AA
:10085000CDB7DEB7698320918C022223F9F0209175
:10086000AF02203258F021E030E0FC0133832283D4
:1008700090E080E00F90DF91CF91089580918D02FC
:10088000E82FF0E0E257FD4F998190838F5F8093CE
:100890008D028093AF0281E090E0ECCF61E0CE0169
:1008A00001960E948102F7CFFC01248131E0309350
:1008B0008C022093AE0210928D021092AF028485BA
:1008C000682B8DE493E00E9425040C94E70290E0ED
:1008D00080E00895FC0101900020E9F73197AF0115
:1008E000481B590BBC0180EB92E00C9473018F9272
:1008F0009F92AF92BF920F931F93CF93DF93CDB789
:10090000DEB7A1970FB6F894DEBF0FBECDBF19A218
:10091000423008F44AE08E010F5D1F4F842E912C67
:10092000B12CA12CA50194010E944409E62FB90124
:10093000CA01EA30F4F4E05DD801EE938D01232B77
:10094000242B252B79F790E080E0109719F0CD014A
:100950000E946A04A1960FB6F894DEBF0FBECDBF09
:10096000DF91CF911F910F91BF90AF909F908F908B
:100970000895E95CE1CFCF93DF930E946A04EC0114
:1009800081E391E00E946A048C0F9D1FDF91CF915B
:1009900008950F931F93CF938C01C62F0E94540488
:1009A0006C2F6460C8010E9454046C2F6B7FC801D7
:1009B0000E94540483EC90E00197F1F7CF911F91CE
:1009C0000F9108950F931F93CF93DF938C01D62F30
:1009D000C42F607F642B0E94C90480E1D89FB001BE
:1009E00011246C2BC801DF91CF911F910F910C94B2
:1009F000C90441E00E94E20481E090E0089585EDA1
:100A00008093BC008091880290918902A0918A0213
:100A1000B0918B020796A11DB11D23E0B695A79555
:100A2000979587952A95D1F72091BC0024FD03C0A6
:100A30001092860208954091880250918902609137
:100A40008A0270918B02452B462B472B69F3009746
:100A5000A105B10541F025E32A95F1F700000197C2
:100A6000A109B109E1CF809187020C94C6021F92BF
:100A70000F920FB60F9211242F933F938F939F9352
:100A8000AF93BF938091580290915902A0915A025E
:100A9000B0915B023091570223E0230F2D3758F5B8
:100AA0000196A11DB11D2093570280935802909387
:100AB0005902A0935A02B0935B0280915C0290911C
:100AC0005D02A0915E02B0915F020196A11DB11D71
:100AD00080935C0290935D02A0935E02B0935F02EC
:100AE000BF91AF919F918F913F912F910F900FBE2A
:100AF0000F901F90189526E8230F0296A11DB11D97
:100B0000D2CF1F920F920FB60F9211242F933F93C3
:100B10004F935F936F937F938F939F93AF93BF9305
:100B2000EF93FF9380EB92E00E94F101FF91EF9130
:100B3000BF91AF919F918F917F916F915F914F91F5
:100B40003F912F910F900FBE0F901F9018951F92FD
:100B50000F920FB60F9211242F938F939F93EF93C1
:100B6000FF93E091C002F091C1028081E091C60242
:100B7000F091C70282FD1BC090818091C9028F5FF6
:100B80008F732091CA02821741F0E091C902F0E010
:100B9000E055FD4F958F8093C902FF91EF919F9192
:100BA0008F912F910F900FBE0F901F9018958081FD
:100BB000F4CF1F920F920FB60F9211242F933F93F1
:100BC0004F935F936F937F938F939F93AF93BF9355
:100BD000EF93FF938091B900887F803609F44AC073
:100BE000F0F5883209F4A7C018F5803109F49BC0EC
:100BF000B8F4882309F4F9C0883009F494C0FF914F
:100C0000EF91BF91AF919F918F917F916F915F9184
:100C10004F913F912F910F900FBE0F901F901895FD
:100C2000883109F488C0803251F78093840214C05F
:100C3000803409F49DC040F48033B9F38833F9F669
:100C40008093840285ECB0C0803509F485C0883576
:100C500009F496C0883499F60E94FF04D0CF8839F1
:100C600009F48CC038F5883729F050F4883611F033
:100C7000803729F683E0809386021092470257C09E
:100C8000883809F47BC0803919F0803809F0B7CF73
:100C900080914702803208F071C0E091470281E004
:100CA0008E0F809347028091BB00F0E0E95DFD4F1D
:100CB00080833DC0803B39F0E0F4803A09F479C08C
:100CC000883A09F09CCF84E0809386021092260235
:100CD00010922502E0914A02F0914B020995809111
:100CE000250281110FC081E0809325021092050238
:100CF00009C0803C09F4A6CF883C09F4A3CF883B07
:100D000009F07DCFE091260281E08E0F80932602CC
:100D1000F0E0EB5FFD4F80818093BB009091260255
:100D20008091250229C0809161028093BB0085ECEF
:100D30008093BC0064CF90918302809182029817C7
:100D400058F5E091830281E08E0F80938302F0E0FA
:100D5000EE59FD4F8081E9CFE091830281E08E0F53
:100D6000809383028091BB00F0E0EE59FD4F8083B9
:100D700090918302809182029817C8F285E8D8CFBB
:100D8000E091830281E08E0F809383028091BB000B
:100D9000F0E0EE59FD4F80838091850281115CCF98
:100DA00081E08093600284EA8093BC001092860206
:100DB00026CF85EC8093BC0010928602809147027A
:100DC000803230F4E0914702F0E0E95DFD4F10829F
:100DD0006091470270E0E0914802F091490287E299
:100DE00092E00995109247020ACF1092840234CF04
:100DF000E0EBF2E01382128288EE93E0A0E0B0E034
:100E000084839583A683B78325E031E031832083F3
:100E100025EC30E03587248724EC30E037872687BF
:100E200020EC30E0318B208B21EC30E0338B228BB7
:100E300022EC30E0358B248B26EC30E0378B268B90
:100E4000118E128E138E148EEDE4F3E01382128253
:100E500084839583A683B78387E191E09183808320
:100E6000E9E5F3E01382128289E291E091838083C5
:100E7000118680E2848380E1828782E08387148602
:100E80000895789484B5826084BD84B5816084BD02
:100E900085B5826085BD85B5816085BD80916E0018
:100EA000816080936E001092810080918100826049
:100EB0008093810080918100816080938100809186
:100EC00080008160809380008091B1008460809375
:100ED000B1008091B00081608093B00080917A0071
:100EE000846080937A0080917A00826080937A0097
:100EF00080917A00816080937A0080917A00806886
:100F000080937A001092C1000E94870084E391E0F0
:100F10000E94BB0410924D0210924C0210928D025E
:100F20001092AF020E94A80201E711E010934B0259
:100F300000934A02C2E7D1E0D0934902C09348022D
:100F400081E080938C0288E68093AE026BE68DE4AC
:100F500093E00E9425040E94870086E491E00E94AD
:100F6000BB0460E08DE493E00E9425040E94E70248
:100F700010924D0210924C0210928D021092AF020C
:100F80000E94A80210934B0200934A02D093490298
:100F9000C093480210925E0380916403823018F07F
:100FA00098E090935E038093610362E370E080E0D9
:100FB00090E00E943F016091650389E593E00E9403
:100FC000540468EE73E080E090E00E943F0160E32B
:100FD00089E593E00E94C904CBE4D6E4CE010197F1
:100FE000F1F760E389E593E00E94C9042197F1F7E6
:100FF00060E389E593E00E94C90483E592E00197EC
:10100000F1F760E289E593E00E94C90460915E0314
:10101000606240E089E593E00E94E20484E080930E
:101020005F0340E06CE089E593E00E94E20440E069
:1010300061E089E593E00E94E2048BE39FE1019780
:10104000F1F780916203882331F040E060E889E5A0
:1010500093E00E94E20482E08093600340E066E057
:1010600089E593E00E94E20440E062E089E593E0D4
:101070000E94E2048BE39FE10197F1F788E08093FF
:10108000650360E089E593E00E945404CFB7F894CB
:1010900080914E02811124C0EAE9F0E08491EEEAE9
:1010A000F0E09491E82FF0E0EE0FFF1FEA57FF4FBA
:1010B000A591B491EC91E92321F461E08AE00E94CA
:1010C000CE008AE00E94AF008CB580618CBD8CB5EB
:1010D00080648CBD8DE00E94AF008BE00E94AF0069
:1010E00080914E028F5F80934E02CFBF8CB58C7F74
:1010F00081608CBD8DB581608DBD61E08AE00E940C
:10110000CE0000E010E0992493949BEBA92E91E08F
:10111000B92E28EB422E2EE1522E25EB622E22E430
:10112000722E80915602882309F44AC083E591E02B
:101130000E94BB04C12CD12C7601C394D0E0C0E046
:1011400090928C02C092AE0210928D021092AF0269
:101150000E94E702811180C08FE591E00E946A043D
:101160008FE08C1520F08EE791E00E946A0440E148
:10117000C701B6010E94770480E891E00E94BB0499
:1011800021968FEFC81AD80AE80AF80A8FE7C8161E
:10119000D104E104F104A1F68FE991E0CD2B21F017
:1011A0001092560285EB91E00E94BB04809156029A
:1011B000882331F068E873E180E090E00E943F010D
:1011C0008091550281110EC090925502B09250024A
:1011D000A0924F02409251025092520260925302EA
:1011E0007092540280910001882351F160E08AE0FE
:1011F0000E94CE0081EC91E00E94BB0480ED91E062
:101200000E94BB04EFE4F2E081918EBD00000DB4BA
:1012100007FEFDCF8EB582E0E635F807A9F787ED2A
:1012200091E00E94BB044AE067E070E080E090E05B
:101230000E94770481E391E00E946A041092000109
:101240000115110509F46DCF0E94DD01882309F411
:1012500068CF0E94000065CF843009F092CF83E808
:1012600091E00E946A048FE08C1520F08EE791E0F7
:101270000E946A0440E1C701B6010E94770481E33D
:1012800091E00E946A047DCFA1E21A2EAA1BBB1B2B
:10129000FD010DC0AA1FBB1FEE1FFF1FA217B30742
:1012A000E407F50720F0A21BB30BE40BF50B661F58
:1012B000771F881F991F1A9469F76095709580951C
:1012C00090959B01AC01BD01CF010895EE0FFF1F6A
:0C12D0000590F491E02D0994F894FFCFF4
:1012DC00010000000013027301A0016002D101AFF4
:1012EC0001C301000000002504F8036704CE03F1DC
:1012FC0003DE03CF0300000000F9047301670480D0
:10130C00020D0A0053657474696E67207570206D48
:10131C006173746572000A493243205363616E6EC7
:10132C006572005363616E6E696E672E2E2E0049D6
:10133C0032432064657669636520666F756E642040
:10134C0061742061646472657373203078003000BE
:10135C00202100556E6B6E6F776E206572726F7206
:10136C002061742061646472657373203078004E60
:10137C006F20493243206465766963657320666F1C
:10138C00756E640A00646F6E650A0074657374652B
:10139C00004D61737465722073656E64696E6700CD
:1013AC00737472756374006E726F20646520627959
:0413BC0074657300E1
:00000001FF
